{
  "transactions": [
    {
      "hash": "0x063694cd27a82318b4c50f0fa710e533aaba40719a57df4d7fbd2ddad660ff13",
      "transactionType": "CREATE",
      "contractName": "MockStablecoin",
      "contractAddress": "0x3d0ad0014933b87332be00e832d16d219c65346c",
      "function": null,
      "arguments": [
        "Test USD Coin",
        "tUSDC",
        "18"
      ],
      "transaction": {
        "from": "0xbaacdcffa93b984c914014f83ee28b68df88dc87",
        "gas": "0xe6b06",
        "value": "0x0",
        "input": "0x60e060405234801561000f575f80fd5b50604051610f02380380610f0283398101604081905261002e916101a1565b8282825f61003c84826102a2565b50600161004983826102a2565b5060ff81166080524660a05261005d61006c565b60c052506103cd945050505050565b5f7f8b73c3c69bb8fe3d512ecc4cf759cc79239f7b179b0ffacaa9a75d522b39400f5f60405161009c919061035c565b6040805191829003822060208301939093528101919091527fc89efdaa54c0f20c7adf612882df0950f5a951637e0307cdcb4c672f298b8bc660608201524660808201523060a082015260c00160405160208183030381529060405280519060200120905090565b634e487b7160e01b5f52604160045260245ffd5b5f82601f830112610127575f80fd5b81516001600160401b0381111561014057610140610104565b604051601f8201601f19908116603f011681016001600160401b038111828210171561016e5761016e610104565b604052818152838201602001851015610185575f80fd5b8160208501602083015e5f918101602001919091529392505050565b5f805f606084860312156101b3575f80fd5b83516001600160401b038111156101c8575f80fd5b6101d486828701610118565b602086015190945090506001600160401b038111156101f1575f80fd5b6101fd86828701610118565b925050604084015160ff81168114610213575f80fd5b809150509250925092565b600181811c9082168061023257607f821691505b60208210810361025057634e487b7160e01b5f52602260045260245ffd5b50919050565b601f82111561029d57805f5260205f20601f840160051c8101602085101561027b5750805b601f840160051c820191505b8181101561029a575f8155600101610287565b50505b505050565b81516001600160401b038111156102bb576102bb610104565b6102cf816102c9845461021e565b84610256565b6020601f821160018114610301575f83156102ea5750848201515b5f19600385901b1c1916600184901b17845561029a565b5f84815260208120601f198516915b828110156103305787850151825560209485019460019092019101610310565b508482101561034d57868401515f19600387901b60f8161c191681555b50505050600190811b01905550565b5f8083546103698161021e565b6001821680156103805760018114610395576103c2565b60ff19831686528115158202860193506103c2565b865f5260205f205f5b838110156103ba5781548882015260019091019060200161039e565b505081860193505b509195945050505050565b60805160a05160c051610b0b6103f75f395f61045101525f61041c01525f61014e0152610b0b5ff3fe608060405234801561000f575f80fd5b50600436106100da575f3560e01c806340c10f191161008857806395d89b411161006357806395d89b41146101dd578063a9059cbb146101e5578063d505accf146101f8578063dd62ed3e1461020b575f80fd5b806340c10f191461018a57806370a082311461019f5780637ecebe00146101be575f80fd5b806323b872dd116100b857806323b872dd14610136578063313ce567146101495780633644e51514610182575f80fd5b806306fdde03146100de578063095ea7b3146100fc57806318160ddd1461011f575b5f80fd5b6100e6610235565b6040516100f39190610857565b60405180910390f35b61010f61010a3660046108a7565b6102c0565b60405190151581526020016100f3565b61012860025481565b6040519081526020016100f3565b61010f6101443660046108cf565b61032c565b6101707f000000000000000000000000000000000000000000000000000000000000000081565b60405160ff90911681526020016100f3565b610128610419565b61019d6101983660046108a7565b610473565b005b6101286101ad366004610909565b60036020525f908152604090205481565b6101286101cc366004610909565b60056020525f908152604090205481565b6100e6610481565b61010f6101f33660046108a7565b61048e565b61019d610206366004610929565b610504565b610128610219366004610996565b600460209081525f928352604080842090915290825290205481565b5f8054610241906109c7565b80601f016020809104026020016040519081016040528092919081815260200182805461026d906109c7565b80156102b85780601f1061028f576101008083540402835291602001916102b8565b820191905f5260205f20905b81548152906001019060200180831161029b57829003601f168201915b505050505081565b335f8181526004602090815260408083206001600160a01b038716808552925280832085905551919290917f8c5be1e5ebec7d5bd14f71427d1e84f3dd0314c0f7b2291e5b200ac8c7c3b9259061031a9086815260200190565b60405180910390a35060015b92915050565b6001600160a01b0383165f9081526004602090815260408083203384529091528120545f198114610385576103618382610a13565b6001600160a01b0386165f9081526004602090815260408083203384529091529020555b6001600160a01b0385165f90815260036020526040812080548592906103ac908490610a13565b90915550506001600160a01b038085165f81815260036020526040908190208054870190555190918716907fddf252ad1be2c89b69c2b068fc378daa952ba7f163c4a11628f55a4df523b3ef906104069087815260200190565b60405180910390a3506001949350505050565b5f7f0000000000000000000000000000000000000000000000000000000000000000461461044e57610449610756565b905090565b507f000000000000000000000000000000000000000000000000000000000000000090565b61047d82826107ee565b5050565b60018054610241906109c7565b335f908152600360205260408120805483919083906104ae908490610a13565b90915550506001600160a01b0383165f81815260036020526040908190208054850190555133907fddf252ad1be2c89b69c2b068fc378daa952ba7f163c4a11628f55a4df523b3ef9061031a9086815260200190565b428410156105595760405162461bcd60e51b815260206004820152601760248201527f5045524d49545f444541444c494e455f4558504952454400000000000000000060448201526064015b60405180910390fd5b5f6001610564610419565b6001600160a01b038a81165f8181526005602090815260409182902080546001810190915582517f6e71edae12b1b97f4d1f60370fef10105fa2faae0126114a169c64845d6126c98184015280840194909452938d166060840152608083018c905260a083019390935260c08083018b90528151808403909101815260e08301909152805192019190912061190160f01b6101008301526101028201929092526101228101919091526101420160408051601f1981840301815282825280516020918201205f84529083018083525260ff871690820152606081018590526080810184905260a0016020604051602081039080840390855afa15801561066c573d5f803e3d5ffd5b5050604051601f1901519150506001600160a01b038116158015906106a25750876001600160a01b0316816001600160a01b0316145b6106ee5760405162461bcd60e51b815260206004820152600e60248201527f494e56414c49445f5349474e45520000000000000000000000000000000000006044820152606401610550565b6001600160a01b039081165f9081526004602090815260408083208a8516808552908352928190208990555188815291928a16917f8c5be1e5ebec7d5bd14f71427d1e84f3dd0314c0f7b2291e5b200ac8c7c3b925910160405180910390a350505050505050565b5f7f8b73c3c69bb8fe3d512ecc4cf759cc79239f7b179b0ffacaa9a75d522b39400f5f6040516107869190610a26565b6040805191829003822060208301939093528101919091527fc89efdaa54c0f20c7adf612882df0950f5a951637e0307cdcb4c672f298b8bc660608201524660808201523060a082015260c00160405160208183030381529060405280519060200120905090565b8060025f8282546107ff9190610ac2565b90915550506001600160a01b0382165f818152600360209081526040808320805486019055518481527fddf252ad1be2c89b69c2b068fc378daa952ba7f163c4a11628f55a4df523b3ef910160405180910390a35050565b602081525f82518060208401528060208501604085015e5f604082850101526040601f19601f83011684010191505092915050565b80356001600160a01b03811681146108a2575f80fd5b919050565b5f80604083850312156108b8575f80fd5b6108c18361088c565b946020939093013593505050565b5f805f606084860312156108e1575f80fd5b6108ea8461088c565b92506108f86020850161088c565b929592945050506040919091013590565b5f60208284031215610919575f80fd5b6109228261088c565b9392505050565b5f805f805f805f60e0888a03121561093f575f80fd5b6109488861088c565b96506109566020890161088c565b95506040880135945060608801359350608088013560ff81168114610979575f80fd5b9699959850939692959460a0840135945060c09093013592915050565b5f80604083850312156109a7575f80fd5b6109b08361088c565b91506109be6020840161088c565b90509250929050565b600181811c908216806109db57607f821691505b6020821081036109f957634e487b7160e01b5f52602260045260245ffd5b50919050565b634e487b7160e01b5f52601160045260245ffd5b81810381811115610326576103266109ff565b5f8083545f8160011c90506001821680610a4157607f821691505b602082108103610a5f57634e487b7160e01b5f52602260045260245ffd5b808015610a735760018114610a8857610ab6565b60ff1984168752821515830287019450610ab6565b5f888152602090205f5b84811015610aae57815489820152600190910190602001610a92565b505082870194505b50929695505050505050565b80820180821115610326576103266109ff56fea2646970667358221220f7ff4378b88c4660d5c3c972db9705bf93dd745801ced34aeb989ffbabc3f14c64736f6c634300081a0033000000000000000000000000000000000000000000000000000000000000006000000000000000000000000000000000000000000000000000000000000000a00000000000000000000000000000000000000000000000000000000000000012000000000000000000000000000000000000000000000000000000000000000d546573742055534420436f696e0000000000000000000000000000000000000000000000000000000000000000000000000000000000000000000000000000057455534443000000000000000000000000000000000000000000000000000000",
        "nonce": "0xb",
        "chainId": "0x515"
      },
      "additionalContracts": [],
      "isFixedGasLimit": false
    },
    {
      "hash": "0x701c8a33242abb50cdca00900848c222602de5fc47834a236a1ca8d1ce684ffc",
      "transactionType": "CREATE",
      "contractName": "MockStablecoin",
      "contractAddress": "0xea3b5b015a5289be6ffa7196af5386a86e50a8c2",
      "function": null,
      "arguments": [
        "Test Tether",
        "tUSDT",
        "18"
      ],
      "transaction": {
        "from": "0xbaacdcffa93b984c914014f83ee28b68df88dc87",
        "gas": "0xe6ae7",
        "value": "0x0",
        "input": "0x60e060405234801561000f575f80fd5b50604051610f02380380610f0283398101604081905261002e916101a1565b8282825f61003c84826102a2565b50600161004983826102a2565b5060ff81166080524660a05261005d61006c565b60c052506103cd945050505050565b5f7f8b73c3c69bb8fe3d512ecc4cf759cc79239f7b179b0ffacaa9a75d522b39400f5f60405161009c919061035c565b6040805191829003822060208301939093528101919091527fc89efdaa54c0f20c7adf612882df0950f5a951637e0307cdcb4c672f298b8bc660608201524660808201523060a082015260c00160405160208183030381529060405280519060200120905090565b634e487b7160e01b5f52604160045260245ffd5b5f82601f830112610127575f80fd5b81516001600160401b0381111561014057610140610104565b604051601f8201601f19908116603f011681016001600160401b038111828210171561016e5761016e610104565b604052818152838201602001851015610185575f80fd5b8160208501602083015e5f918101602001919091529392505050565b5f805f606084860312156101b3575f80fd5b83516001600160401b038111156101c8575f80fd5b6101d486828701610118565b602086015190945090506001600160401b038111156101f1575f80fd5b6101fd86828701610118565b925050604084015160ff81168114610213575f80fd5b809150509250925092565b600181811c9082168061023257607f821691505b60208210810361025057634e487b7160e01b5f52602260045260245ffd5b50919050565b601f82111561029d57805f5260205f20601f840160051c8101602085101561027b5750805b601f840160051c820191505b8181101561029a575f8155600101610287565b50505b505050565b81516001600160401b038111156102bb576102bb610104565b6102cf816102c9845461021e565b84610256565b6020601f821160018114610301575f83156102ea5750848201515b5f19600385901b1c1916600184901b17845561029a565b5f84815260208120601f198516915b828110156103305787850151825560209485019460019092019101610310565b508482101561034d57868401515f19600387901b60f8161c191681555b50505050600190811b01905550565b5f8083546103698161021e565b6001821680156103805760018114610395576103c2565b60ff19831686528115158202860193506103c2565b865f5260205f205f5b838110156103ba5781548882015260019091019060200161039e565b505081860193505b509195945050505050565b60805160a05160c051610b0b6103f75f395f61045101525f61041c01525f61014e0152610b0b5ff3fe608060405234801561000f575f80fd5b50600436106100da575f3560e01c806340c10f191161008857806395d89b411161006357806395d89b41146101dd578063a9059cbb146101e5578063d505accf146101f8578063dd62ed3e1461020b575f80fd5b806340c10f191461018a57806370a082311461019f5780637ecebe00146101be575f80fd5b806323b872dd116100b857806323b872dd14610136578063313ce567146101495780633644e51514610182575f80fd5b806306fdde03146100de578063095ea7b3146100fc57806318160ddd1461011f575b5f80fd5b6100e6610235565b6040516100f39190610857565b60405180910390f35b61010f61010a3660046108a7565b6102c0565b60405190151581526020016100f3565b61012860025481565b6040519081526020016100f3565b61010f6101443660046108cf565b61032c565b6101707f000000000000000000000000000000000000000000000000000000000000000081565b60405160ff90911681526020016100f3565b610128610419565b61019d6101983660046108a7565b610473565b005b6101286101ad366004610909565b60036020525f908152604090205481565b6101286101cc366004610909565b60056020525f908152604090205481565b6100e6610481565b61010f6101f33660046108a7565b61048e565b61019d610206366004610929565b610504565b610128610219366004610996565b600460209081525f928352604080842090915290825290205481565b5f8054610241906109c7565b80601f016020809104026020016040519081016040528092919081815260200182805461026d906109c7565b80156102b85780601f1061028f576101008083540402835291602001916102b8565b820191905f5260205f20905b81548152906001019060200180831161029b57829003601f168201915b505050505081565b335f8181526004602090815260408083206001600160a01b038716808552925280832085905551919290917f8c5be1e5ebec7d5bd14f71427d1e84f3dd0314c0f7b2291e5b200ac8c7c3b9259061031a9086815260200190565b60405180910390a35060015b92915050565b6001600160a01b0383165f9081526004602090815260408083203384529091528120545f198114610385576103618382610a13565b6001600160a01b0386165f9081526004602090815260408083203384529091529020555b6001600160a01b0385165f90815260036020526040812080548592906103ac908490610a13565b90915550506001600160a01b038085165f81815260036020526040908190208054870190555190918716907fddf252ad1be2c89b69c2b068fc378daa952ba7f163c4a11628f55a4df523b3ef906104069087815260200190565b60405180910390a3506001949350505050565b5f7f0000000000000000000000000000000000000000000000000000000000000000461461044e57610449610756565b905090565b507f000000000000000000000000000000000000000000000000000000000000000090565b61047d82826107ee565b5050565b60018054610241906109c7565b335f908152600360205260408120805483919083906104ae908490610a13565b90915550506001600160a01b0383165f81815260036020526040908190208054850190555133907fddf252ad1be2c89b69c2b068fc378daa952ba7f163c4a11628f55a4df523b3ef9061031a9086815260200190565b428410156105595760405162461bcd60e51b815260206004820152601760248201527f5045524d49545f444541444c494e455f4558504952454400000000000000000060448201526064015b60405180910390fd5b5f6001610564610419565b6001600160a01b038a81165f8181526005602090815260409182902080546001810190915582517f6e71edae12b1b97f4d1f60370fef10105fa2faae0126114a169c64845d6126c98184015280840194909452938d166060840152608083018c905260a083019390935260c08083018b90528151808403909101815260e08301909152805192019190912061190160f01b6101008301526101028201929092526101228101919091526101420160408051601f1981840301815282825280516020918201205f84529083018083525260ff871690820152606081018590526080810184905260a0016020604051602081039080840390855afa15801561066c573d5f803e3d5ffd5b5050604051601f1901519150506001600160a01b038116158015906106a25750876001600160a01b0316816001600160a01b0316145b6106ee5760405162461bcd60e51b815260206004820152600e60248201527f494e56414c49445f5349474e45520000000000000000000000000000000000006044820152606401610550565b6001600160a01b039081165f9081526004602090815260408083208a8516808552908352928190208990555188815291928a16917f8c5be1e5ebec7d5bd14f71427d1e84f3dd0314c0f7b2291e5b200ac8c7c3b925910160405180910390a350505050505050565b5f7f8b73c3c69bb8fe3d512ecc4cf759cc79239f7b179b0ffacaa9a75d522b39400f5f6040516107869190610a26565b6040805191829003822060208301939093528101919091527fc89efdaa54c0f20c7adf612882df0950f5a951637e0307cdcb4c672f298b8bc660608201524660808201523060a082015260c00160405160208183030381529060405280519060200120905090565b8060025f8282546107ff9190610ac2565b90915550506001600160a01b0382165f818152600360209081526040808320805486019055518481527fddf252ad1be2c89b69c2b068fc378daa952ba7f163c4a11628f55a4df523b3ef910160405180910390a35050565b602081525f82518060208401528060208501604085015e5f604082850101526040601f19601f83011684010191505092915050565b80356001600160a01b03811681146108a2575f80fd5b919050565b5f80604083850312156108b8575f80fd5b6108c18361088c565b946020939093013593505050565b5f805f606084860312156108e1575f80fd5b6108ea8461088c565b92506108f86020850161088c565b929592945050506040919091013590565b5f60208284031215610919575f80fd5b6109228261088c565b9392505050565b5f805f805f805f60e0888a03121561093f575f80fd5b6109488861088c565b96506109566020890161088c565b95506040880135945060608801359350608088013560ff81168114610979575f80fd5b9699959850939692959460a0840135945060c09093013592915050565b5f80604083850312156109a7575f80fd5b6109b08361088c565b91506109be6020840161088c565b90509250929050565b600181811c908216806109db57607f821691505b6020821081036109f957634e487b7160e01b5f52602260045260245ffd5b50919050565b634e487b7160e01b5f52601160045260245ffd5b81810381811115610326576103266109ff565b5f8083545f8160011c90506001821680610a4157607f821691505b602082108103610a5f57634e487b7160e01b5f52602260045260245ffd5b808015610a735760018114610a8857610ab6565b60ff1984168752821515830287019450610ab6565b5f888152602090205f5b84811015610aae57815489820152600190910190602001610a92565b505082870194505b50929695505050505050565b80820180821115610326576103266109ff56fea2646970667358221220f7ff4378b88c4660d5c3c972db9705bf93dd745801ced34aeb989ffbabc3f14c64736f6c634300081a0033000000000000000000000000000000000000000000000000000000000000006000000000000000000000000000000000000000000000000000000000000000a00000000000000000000000000000000000000000000000000000000000000012000000000000000000000000000000000000000000000000000000000000000b546573742054657468657200000000000000000000000000000000000000000000000000000000000000000000000000000000000000000000000000000000057455534454000000000000000000000000000000000000000000000000000000",
        "nonce": "0xc",
        "chainId": "0x515"
      },
      "additionalContracts": [],
      "isFixedGasLimit": false
    },
    {
      "hash": "0xb63685fa80a49d235e601e98bafbee5a8c99ee86b5f2a26680ca6f3df29c5528",
      "transactionType": "CALL",
      "contractName": "MockStablecoin",
      "contractAddress": "0x3d0ad0014933b87332be00e832d16d219c65346c",
      "function": "mint(address,uint256)",
      "arguments": [
        "0xbaacDCFfA93B984C914014F83Ee28B68dF88DC87",
        "1000000000000000000000000"
      ],
      "transaction": {
        "from": "0xbaacdcffa93b984c914014f83ee28b68df88dc87",
        "to": "0x3d0ad0014933b87332be00e832d16d219c65346c",
        "gas": "0x1702a",
        "value": "0x0",
        "input": "0x40c10f19000000000000000000000000baacdcffa93b984c914014f83ee28b68df88dc8700000000000000000000000000000000000000000000d3c21bcecceda1000000",
        "nonce": "0xd",
        "chainId": "0x515"
      },
      "additionalContracts": [],
      "isFixedGasLimit": false
    },
    {
      "hash": "0x1e771a0de1d2c6d9534beca40467f24c9f3f8f424ad3f07539c6cc0ac01df6c5",
      "transactionType": "CALL",
      "contractName": "MockStablecoin",
      "contractAddress": "0xea3b5b015a5289be6ffa7196af5386a86e50a8c2",
      "function": "mint(address,uint256)",
      "arguments": [
        "0xbaacDCFfA93B984C914014F83Ee28B68dF88DC87",
        "1000000000000000000000000"
      ],
      "transaction": {
        "from": "0xbaacdcffa93b984c914014f83ee28b68df88dc87",
        "to": "0xea3b5b015a5289be6ffa7196af5386a86e50a8c2",
        "gas": "0x1702a",
        "value": "0x0",
        "input": "0x40c10f19000000000000000000000000baacdcffa93b984c914014f83ee28b68df88dc8700000000000000000000000000000000000000000000d3c21bcecceda1000000",
        "nonce": "0xe",
        "chainId": "0x515"
      },
      "additionalContracts": [],
      "isFixedGasLimit": false
    },
    {
      "hash": "0xb69507632516000a95b260fc1d3154b54fc270a6d8d5c5e7ee964c28ec69dbc1",
      "transactionType": "CREATE2",
      "contractName": "StableProtectionHook",
      "contractAddress": "0x1510926ba6986cb3c93bfff25839c0ef740820c0",
      "function": null,
      "arguments": [
        "0x00B036B58a818B1BC34d502D3fE730Db729e62AC"
      ],
      "transaction": {
        "from": "0xbaacdcffa93b984c914014f83ee28b68df88dc87",
        "to": "0x4e59b44847b379578588920ca78fbf26c0b4956c",
        "gas": "0x2113d0",
        "value": "0x0",
        "input": "0x0000000000000000000000000000000000000000000000000000000000001b7a60a060405234801561000f575f80fd5b50604051611e52380380611e5283398101604081905261002e916102a4565b6001600160a01b038116608052806100453061004c565b50506102d1565b61013c81610137604080516101c0810182525f80825260208201819052918101829052606081018290526080810182905260a0810182905260c0810182905260e08101829052610100810182905261012081018290526101408101829052610160810182905261018081018290526101a081019190915250604080516101c08101825260018082525f60208301819052928201839052606082018390526080820183905260a0820183905260c0820181905260e0820152610100810182905261012081018290526101408101829052610160810182905261018081018290526101a081019190915290565b61013f565b50565b80511515612000831615151415806101635750602081015115156110008316151514155b8061017a5750604081015115156108008316151514155b806101915750606081015115156104008316151514155b806101a85750608081015115156102008316151514155b806101bf575060a081015115156101008316151514155b806101d5575060c0810151151560808316151514155b806101eb575060e0810151151560408316151514155b806102025750610100810151151560208316151514155b806102195750610120810151151560108316151514155b806102305750610140810151151560088316151514155b806102475750610160810151151560048316151514155b8061025e5750610180810151151560028316151514155b8061027557506101a0810151151560018316151514155b1561028b5761028b630732d7b560e51b8361028f565b5050565b815f526001600160a01b03811660045260245ffd5b5f602082840312156102b4575f80fd5b81516001600160a01b03811681146102ca575f80fd5b9392505050565b608051611b2a6103285f395f8181610449015281816104a2015281816105050152818161056e015281816105d70152818161065e015281816106c5015281816107280152818161092e01526109600152611b2a5ff3fe608060405234801561000f575f80fd5b50600436106100f0575f3560e01c8063933df20e11610093578063c4e833ce11610063578063c4e833ce14610350578063dc4c90d314610444578063dc98354e14610483578063e1b4af691461033d575f80fd5b8063933df20e146102e65780639f063efc146102a0578063b47b2fb114610307578063b6a8b0fa1461033d575f80fd5b8063259982e5116100ce578063259982e514610236578063575e24b4146102625780636c2bbe7e146102a05780636fe7e6eb146102d3575f80fd5b8063037aadbe146100f457806321b239ef146101ef57806321d0ee7014610236575b5f80fd5b610195610102366004611336565b6040805160a0810182525f80825260208201819052918101829052606081018290526080810191909152505f9081526020818152604091829020825160a0810184528154815260019091015462ffffff80821693830193909352630100000081049092169281019290925260ff660100000000000082048116606084015267010000000000000090910416608082015290565b6040516101e691905f60a0820190508251825262ffffff602084015116602083015262ffffff604084015116604083015260ff606084015116606083015260ff608084015116608083015292915050565b60405180910390f35b6102266101fd366004611336565b5f908152600260208190526040909120805460018201549282015460039092015460ff90911693565b6040516101e69493929190611381565b610249610244366004611432565b610496565b6040516001600160e01b031990911681526020016101e6565b6102756102703660046114b9565b6104f7565b604080516001600160e01b03199094168452602084019290925262ffffff16908201526060016101e6565b6102b36102ae366004611513565b610561565b604080516001600160e01b031990931683526020830191909152016101e6565b6102496102e13660046115af565b6105cb565b6102f96102f4366004611336565b61062a565b6040519081526020016101e6565b61031a610315366004611606565b610651565b604080516001600160e01b03199093168352600f9190910b6020830152016101e6565b61024961034b366004611687565b6106b9565b610437604080516101c0810182525f80825260208201819052918101829052606081018290526080810182905260a0810182905260c0810182905260e08101829052610100810182905261012081018290526101408101829052610160810182905261018081018290526101a081019190915250604080516101c08101825260018082525f60208301819052928201839052606082018390526080820183905260a0820183905260c0820181905260e0820152610100810182905261012081018290526101408101829052610160810182905261018081018290526101a081019190915290565b6040516101e691906116e1565b61046b7f000000000000000000000000000000000000000000000000000000000000000081565b6040516001600160a01b0390911681526020016101e6565b610249610491366004611802565b61071c565b5f336001600160a01b037f000000000000000000000000000000000000000000000000000000000000000016146104e05760405163570c108560e11b815260040160405180910390fd5b6104ed868686868661077b565b9695505050505050565b5f8080336001600160a01b037f000000000000000000000000000000000000000000000000000000000000000016146105435760405163570c108560e11b815260040160405180910390fd5b6105508888888888610795565b925092509250955095509592505050565b5f80336001600160a01b037f000000000000000000000000000000000000000000000000000000000000000016146105ac5760405163570c108560e11b815260040160405180910390fd5b6105bb89898989898989610903565b9150915097509795505050505050565b5f336001600160a01b037f000000000000000000000000000000000000000000000000000000000000000016146106155760405163570c108560e11b815260040160405180910390fd5b6106218585858561077b565b95945050505050565b5f8181526020819052604081208180610643858461091e565b915091506104ed8282610a75565b5f80336001600160a01b037f0000000000000000000000000000000000000000000000000000000000000000161461069c5760405163570c108560e11b815260040160405180910390fd5b6106aa888888888888610b3a565b91509150965096945050505050565b5f336001600160a01b037f000000000000000000000000000000000000000000000000000000000000000016146107035760405163570c108560e11b815260040160405180910390fd5b61071187878787878761077b565b979650505050505050565b5f336001600160a01b037f000000000000000000000000000000000000000000000000000000000000000016146107665760405163570c108560e11b815260040160405180910390fd5b610771848484610c49565b90505b9392505050565b5f604051630a85dc2960e01b815260040160405180910390fd5b5f8080806107b26107ab368a90038a018a61185b565b60a0902090565b5f818152602081905260408120919250806107cd848461091e565b915091505f806107dd8484610a75565b909250905060048260048111156107f6576107f661134d565b0361085b57857f12c8e08474d97942b310d3a547c899ba2c6280195c241de1bc1a433520428b0b8260405161082d91815260200190565b60405180910390a2818160405163e150456b60e01b81526004016108529291906118f5565b60405180910390fd5b5f61087885858f5f0160208101906108739190611910565b610e79565b90505f61089984838960010160039054906101000a900462ffffff16610e92565b6040805162ffffff83168152841515602082015291925089917fdcc67a70f64a313d3466fe6a6212224e098a69a84b4d94c9479289b39665058e910160405180910390a26315d7892d60e21b9a505f99506240000017975050505050505050955095509592505050565b5f80604051630a85dc2960e01b815260040160405180910390fd5b5f80806109546001600160a01b037f00000000000000000000000000000000000000000000000000000000000000001686610eef565b50505090505f610996867f00000000000000000000000000000000000000000000000000000000000000006001600160a01b0316610fa190919063ffffffff16565b90506fffffffffffffffffffffffffffffffff81166001600160a01b03831615806109bf575080155b156109d2575f8094509450505050610a6e565b5f6001600160a01b0384166109f46c0100000000000000000000000084611943565b6109fe919061195a565b90505f6c01000000000000000000000000610a226001600160a01b03871685611943565b610a2c919061195a565b9050610a49828960010160069054906101000a900460ff16611024565b9650610a66818960010160079054906101000a900460ff16611024565b955050505050505b9250929050565b5f80831580610a82575082155b15610a935750600490505f19610a6e565b5f838511610aaa57610aa58585611979565b610ab4565b610ab48486611979565b90505f6002610ac3868861198c565b610acd919061195a565b905080610adc61271084611943565b610ae6919061195a565b9250600a8311610af8575f9350610b31565b60328311610b095760019350610b31565b60c88311610b1a5760029350610b31565b6101f48311610b2c5760039350610b31565b600493505b50509250929050565b5f8080610b4f6107ab368a90038a018a61185b565b5f81815260208190526040812091925080610b6a848461091e565b915091505f610b798383610a75565b505f86815260026020526040902080549192509060ff166004811115610ba157610ba161134d565b826004811115610bb357610bb361134d565b14610c1c57805460405187917f60f2418ebf1a642a678cbe1f3307dbcff2d8988f50cbfe468a0d417847624b7e91610bf09160ff1690869061199f565b60405180910390a280548290829060ff19166001836004811115610c1657610c1661134d565b02179055505b6001810193909355506002820155436003909101555063b47b2fb160e01b995f9950975050505050505050565b5f80610c5d6107ab3686900386018661185b565b5f8181526001602052604090205490915060ff1615610c8e5760405162dc149f60e41b815260040160405180910390fd5b610cb3610ca160608601604087016119ba565b62ffffff1662ffffff16628000001490565b610d255760405162461bcd60e51b815260206004820152602660248201527f5350483a20706f6f6c20666565206d7573742062652044594e414d49435f464560448201527f455f464c414700000000000000000000000000000000000000000000000000006064820152608401610852565b6040805160a08101825260648082526020820152612710918101919091526012606082018190526080820152610d5a81611093565b5f828152602081815260408083208451815584830151600191820180548785015160608901516080808b015162ffffff96871665ffffffffffff1990951694909417630100000096909316959095029190911767ffff0000000000001916660100000000000060ff9283160267ff00000000000000191617670100000000000000919092160217905592819052818420805460ff191690911790558051918201905290819081525f6020808301829052604080840183905243606090940193909352858252600290522081518154829060ff19166001836004811115610e4257610e4261134d565b0217905550602082015160018201556040820151600282015560609091015160039091015550636e4c1aa760e11b95945050505050565b5f828403610e8857505f610774565b5015159111141590565b5f80610e9d8561128c565b62ffffff1690505f84610eb257617530610eb6565b6113885b90505f612710610ec68385611943565b610ed0919061195a565b90508462ffffff168111610ee45780610711565b509295945050505050565b5f805f805f610efd866112fa565b604051631e2eaeaf60e01b8152600481018290529091505f906001600160a01b03891690631e2eaeaf90602401602060405180830381865afa158015610f45573d5f803e3d5ffd5b505050506040513d601f19601f82011682018060405250810190610f6991906119d3565b90506001600160a01b03811695508060a01c60020b945062ffffff8160b81c16935062ffffff8160d01c169250505092959194509250565b5f80610fac836112fa565b90505f610fba60038361198c565b604051631e2eaeaf60e01b8152600481018290529091506001600160a01b03861690631e2eaeaf90602401602060405180830381865afa158015611000573d5f803e3d5ffd5b505050506040513d601f19601f8201168201806040525081019061062191906119d3565b5f8160ff1660120361103757508161108d565b60128260ff16111561106a5761104e6012836119ea565b61105990600a611ae6565b611063908461195a565b905061108d565b6110758260126119ea565b61108090600a611ae6565b61108a9084611943565b90505b92915050565b8051600111806110a5575080516103e8105b156110f3576040516301f6ffb960e31b815260206004820152601c60248201527f616d706c696669636174696f6e206d75737420626520312d31303030000000006044820152606401610852565b806040015162ffffff16816020015162ffffff161115611156576040516301f6ffb960e31b815260206004820152601660248201527f626173654665652065786365656473206d6178466565000000000000000000006044820152606401610852565b61271062ffffff16816040015162ffffff1611156111b7576040516301f6ffb960e31b815260206004820152601660248201527f6d617846656520657863656564732031303020627073000000000000000000006044820152606401610852565b606081015160ff1615806111d257506012816060015160ff16115b15611220576040516301f6ffb960e31b815260206004820152601660248201527f646563696d616c7330206d75737420626520312d3138000000000000000000006044820152606401610852565b608081015160ff16158061123b57506012816080015160ff16115b15611289576040516301f6ffb960e31b815260206004820152601660248201527f646563696d616c7331206d75737420626520312d3138000000000000000000006044820152606401610852565b50565b5f808260048111156112a0576112a061134d565b036112ad57506064919050565b60018260048111156112c1576112c161134d565b036112cf57506101f4919050565b60028260048111156112e3576112e361134d565b036112f157506105dc919050565b50611388919050565b6040515f90611319908390600690602001918252602082015260400190565b604051602081830303815290604052805190602001209050919050565b5f60208284031215611346575f80fd5b5035919050565b634e487b7160e01b5f52602160045260245ffd5b6005811061137d57634e487b7160e01b5f52602160045260245ffd5b9052565b6080810161138f8287611361565b84602083015283604083015282606083015295945050505050565b6001600160a01b0381168114611289575f80fd5b80356113c9816113aa565b919050565b5f60a082840312156113de575f80fd5b50919050565b5f608082840312156113de575f80fd5b5f8083601f840112611404575f80fd5b50813567ffffffffffffffff81111561141b575f80fd5b602083019150836020828501011115610a6e575f80fd5b5f805f805f6101608688031215611447575f80fd5b8535611452816113aa565b945061146187602088016113ce565b93506114708760c088016113e4565b925061014086013567ffffffffffffffff81111561148c575f80fd5b611498888289016113f4565b969995985093965092949392505050565b5f606082840312156113de575f80fd5b5f805f805f61014086880312156114ce575f80fd5b85356114d9816113aa565b94506114e887602088016113ce565b93506114f78760c088016114a9565b925061012086013567ffffffffffffffff81111561148c575f80fd5b5f805f805f805f6101a0888a03121561152a575f80fd5b8735611535816113aa565b96506115448960208a016113ce565b95506115538960c08a016113e4565b94506101408801359350610160880135925061018088013567ffffffffffffffff81111561157f575f80fd5b61158b8a828b016113f4565b989b979a50959850939692959293505050565b8035600281900b81146113c9575f80fd5b5f805f8061010085870312156115c3575f80fd5b84356115ce816113aa565b93506115dd86602087016113ce565b925060c08501356115ed816113aa565b91506115fb60e0860161159e565b905092959194509250565b5f805f805f80610160878903121561161c575f80fd5b8635611627816113aa565b955061163688602089016113ce565b94506116458860c089016114a9565b9350610120870135925061014087013567ffffffffffffffff811115611669575f80fd5b61167589828a016113f4565b979a9699509497509295939492505050565b5f805f805f80610120878903121561169d575f80fd5b86356116a8816113aa565b95506116b788602089016113ce565b945060c0870135935060e0870135925061010087013567ffffffffffffffff811115611669575f80fd5b8151151581526101c0810160208301516116ff602084018215159052565b506040830151611713604084018215159052565b506060830151611727606084018215159052565b50608083015161173b608084018215159052565b5060a083015161174f60a084018215159052565b5060c083015161176360c084018215159052565b5060e083015161177760e084018215159052565b5061010083015161178d61010084018215159052565b506101208301516117a361012084018215159052565b506101408301516117b961014084018215159052565b506101608301516117cf61016084018215159052565b506101808301516117e561018084018215159052565b506101a08301516117fb6101a084018215159052565b5092915050565b5f805f60e08486031215611814575f80fd5b833561181f816113aa565b925061182e85602086016113ce565b915060c084013561183e816113aa565b809150509250925092565b803562ffffff811681146113c9575f80fd5b5f60a082840312801561186c575f80fd5b5060405160a0810167ffffffffffffffff8111828210171561189c57634e487b7160e01b5f52604160045260245ffd5b6040526118a8836113be565b81526118b6602084016113be565b60208201526118c760408401611849565b60408201526118d86060840161159e565b60608201526118e9608084016113be565b60808201529392505050565b604081016119038285611361565b8260208301529392505050565b5f60208284031215611920575f80fd5b81358015158114610774575f80fd5b634e487b7160e01b5f52601160045260245ffd5b808202811582820484141761108d5761108d61192f565b5f8261197457634e487b7160e01b5f52601260045260245ffd5b500490565b8181038181111561108d5761108d61192f565b8082018082111561108d5761108d61192f565b604081016119ad8285611361565b6107746020830184611361565b5f602082840312156119ca575f80fd5b61108a82611849565b5f602082840312156119e3575f80fd5b5051919050565b60ff828116828216039081111561108d5761108d61192f565b6001815b6001841115611a3e57808504811115611a2257611a2261192f565b6001841615611a3057908102905b60019390931c928002611a07565b935093915050565b5f82611a545750600161108d565b81611a6057505f61108d565b8160018114611a765760028114611a8057611a9c565b600191505061108d565b60ff841115611a9157611a9161192f565b50506001821b61108d565b5060208310610133831016604e8410600b8410161715611abf575081810a61108d565b611acb5f198484611a03565b805f1904821115611ade57611ade61192f565b029392505050565b5f61108a60ff841683611a4656fea2646970667358221220e54a7a63ac1d7957f647bf405416eb0bcf246c94861327e702f77392911462d664736f6c634300081a003300000000000000000000000000b036b58a818b1bc34d502d3fe730db729e62ac",
        "nonce": "0xf",
        "chainId": "0x515"
      },
      "additionalContracts": [],
      "isFixedGasLimit": false
    },
    {
      "hash": "0x1ba84a6d33f16c5afce8c8fcd2a674c1d8c3745b0107af5b06a3d5cf50a8d7e2",
      "transactionType": "CALL",
      "contractName": null,
      "contractAddress": "0x00b036b58a818b1bc34d502d3fe730db729e62ac",
      "function": "initialize((address,address,uint24,int24,address),uint160)",
      "arguments": [
        "(0x3D0aD0014933b87332BE00E832D16d219c65346c, 0xEa3B5B015a5289bE6fFa7196aF5386A86E50a8c2, 8388608, 1, 0x1510926ba6986cb3c93BFFF25839C0ef740820c0)",
        "79228162514264337593543950336"
      ],
      "transaction": {
        "from": "0xbaacdcffa93b984c914014f83ee28b68df88dc87",
        "to": "0x00b036b58a818b1bc34d502d3fe730db729e62ac",
        "gas": "0x339b6",
        "value": "0x0",
        "input": "0x6276cbbe0000000000000000000000003d0ad0014933b87332be00e832d16d219c65346c000000000000000000000000ea3b5b015a5289be6ffa7196af5386a86e50a8c2000000000000000000000000000000000000000000000000000000000080000000000000000000000000000000000000000000000000000000000000000000010000000000000000000000001510926ba6986cb3c93bfff25839c0ef740820c00000000000000000000000000000000000000001000000000000000000000000",
        "nonce": "0x10",
        "chainId": "0x515"
      },
      "additionalContracts": [],
      "isFixedGasLimit": false
    },
    {
      "hash": "0x8171e1cd7101f7fdb3002fadcbe5172c427a7d1bfe02774986255cef73bb1792",
      "transactionType": "CALL",
      "contractName": "MockStablecoin",
      "contractAddress": "0x3d0ad0014933b87332be00e832d16d219c65346c",
      "function": "approve(address,uint256)",
      "arguments": [
        "0x5fa728C0A5cfd51BEe4B060773f50554c0C8A7AB",
        "115792089237316195423570985008687907853269984665640564039457584007913129639935"
      ],
      "transaction": {
        "from": "0xbaacdcffa93b984c914014f83ee28b68df88dc87",
        "to": "0x3d0ad0014933b87332be00e832d16d219c65346c",
        "gas": "0xfad1",
        "value": "0x0",
        "input": "0x095ea7b30000000000000000000000005fa728c0a5cfd51bee4b060773f50554c0c8a7abffffffffffffffffffffffffffffffffffffffffffffffffffffffffffffffff",
        "nonce": "0x11",
        "chainId": "0x515"
      },
      "additionalContracts": [],
      "isFixedGasLimit": false
    },
    {
      "hash": "0x05db6b2772bd667dc205b8c3c93dd98d6e11821c2241dac7e7201de7b22240c0",
      "transactionType": "CALL",
      "contractName": "MockStablecoin",
      "contractAddress": "0xea3b5b015a5289be6ffa7196af5386a86e50a8c2",
      "function": "approve(address,uint256)",
      "arguments": [
        "0x5fa728C0A5cfd51BEe4B060773f50554c0C8A7AB",
        "115792089237316195423570985008687907853269984665640564039457584007913129639935"
      ],
      "transaction": {
        "from": "0xbaacdcffa93b984c914014f83ee28b68df88dc87",
        "to": "0xea3b5b015a5289be6ffa7196af5386a86e50a8c2",
        "gas": "0xfad1",
        "value": "0x0",
        "input": "0x095ea7b30000000000000000000000005fa728c0a5cfd51bee4b060773f50554c0c8a7abffffffffffffffffffffffffffffffffffffffffffffffffffffffffffffffff",
        "nonce": "0x12",
        "chainId": "0x515"
      },
      "additionalContracts": [],
      "isFixedGasLimit": false
    },
    {
      "hash": "0x057661ec12166ecd602eb647c40b134296bbd5f38e4da237085e22a874afdd3c",
      "transactionType": "CALL",
      "contractName": null,
      "contractAddress": "0x5fa728c0a5cfd51bee4b060773f50554c0c8a7ab",
      "function": "modifyLiquidity((address,address,uint24,int24,address),(int24,int24,int256,bytes32),bytes)",
      "arguments": [
        "(0x3D0aD0014933b87332BE00E832D16d219c65346c, 0xEa3B5B015a5289bE6fFa7196aF5386A86E50a8c2, 8388608, 1, 0x1510926ba6986cb3c93BFFF25839C0ef740820c0)",
        "(-10, 10, 10000000000000000000000, 0x0000000000000000000000000000000000000000000000000000000000000000)",
        "0x"
      ],
      "transaction": {
        "from": "0xbaacdcffa93b984c914014f83ee28b68df88dc87",
        "to": "0x5fa728c0a5cfd51bee4b060773f50554c0c8a7ab",
        "gas": "0x6306a",
        "value": "0x0",
        "input": "0x5a6bcfda0000000000000000000000003d0ad0014933b87332be00e832d16d219c65346c000000000000000000000000ea3b5b015a5289be6ffa7196af5386a86e50a8c2000000000000000000000000000000000000000000000000000000000080000000000000000000000000000000000000000000000000000000000000000000010000000000000000000000001510926ba6986cb3c93bfff25839c0ef740820c0fffffffffffffffffffffffffffffffffffffffffffffffffffffffffffffff6000000000000000000000000000000000000000000000000000000000000000a00000000000000000000000000000000000000000000021e19e0c9bab2400000000000000000000000000000000000000000000000000000000000000000000000000000000000000000000000000000000000000000000000000000000001400000000000000000000000000000000000000000000000000000000000000000",
        "nonce": "0x13",
        "chainId": "0x515"
      },
      "additionalContracts": [],
      "isFixedGasLimit": false
    },
    {
      "hash": "0x81204471c389e5f09c81468d4987944c37a347a0c194753d7c0d8d69ad6306eb",
      "transactionType": "CALL",
      "contractName": "MockStablecoin",
      "contractAddress": "0x3d0ad0014933b87332be00e832d16d219c65346c",
      "function": "approve(address,uint256)",
      "arguments": [
        "0x9140a78c1A137c7fF1c151EC8231272aF78a99A4",
        "115792089237316195423570985008687907853269984665640564039457584007913129639935"
      ],
      "transaction": {
        "from": "0xbaacdcffa93b984c914014f83ee28b68df88dc87",
        "to": "0x3d0ad0014933b87332be00e832d16d219c65346c",
        "gas": "0xfad1",
        "value": "0x0",
        "input": "0x095ea7b30000000000000000000000009140a78c1a137c7ff1c151ec8231272af78a99a4ffffffffffffffffffffffffffffffffffffffffffffffffffffffffffffffff",
        "nonce": "0x14",
        "chainId": "0x515"
      },
      "additionalContracts": [],
      "isFixedGasLimit": false
    },
    {
      "hash": "0x0114486a35f0f3d02e9e1a320b23a54d56d32943b3939a6cc6bef7475040f429",
      "transactionType": "CALL",
      "contractName": "MockStablecoin",
      "contractAddress": "0xea3b5b015a5289be6ffa7196af5386a86e50a8c2",
      "function": "approve(address,uint256)",
      "arguments": [
        "0x9140a78c1A137c7fF1c151EC8231272aF78a99A4",
        "115792089237316195423570985008687907853269984665640564039457584007913129639935"
      ],
      "transaction": {
        "from": "0xbaacdcffa93b984c914014f83ee28b68df88dc87",
        "to": "0xea3b5b015a5289be6ffa7196af5386a86e50a8c2",
        "gas": "0xfad1",
        "value": "0x0",
        "input": "0x095ea7b30000000000000000000000009140a78c1a137c7ff1c151ec8231272af78a99a4ffffffffffffffffffffffffffffffffffffffffffffffffffffffffffffffff",
        "nonce": "0x15",
        "chainId": "0x515"
      },
      "additionalContracts": [],
      "isFixedGasLimit": false
    },
    {
      "hash": "0x6af6e96ac2d101a61d70d2b95fa23fcfa5842bce5153745da84deadc393134ee",
      "transactionType": "CALL",
      "contractName": null,
      "contractAddress": "0x9140a78c1a137c7ff1c151ec8231272af78a99a4",
      "function": "swap((address,address,uint24,int24,address),(bool,int256,uint160),(bool,bool),bytes)",
      "arguments": [
        "(0x3D0aD0014933b87332BE00E832D16d219c65346c, 0xEa3B5B015a5289bE6fFa7196aF5386A86E50a8c2, 8388608, 1, 0x1510926ba6986cb3c93BFFF25839C0ef740820c0)",
        "(true, -10000000000000000000, 4295128740)",
        "(false, false)",
        "0x"
      ],
      "transaction": {
        "from": "0xbaacdcffa93b984c914014f83ee28b68df88dc87",
        "to": "0x9140a78c1a137c7ff1c151ec8231272af78a99a4",
        "gas": "0x18ae7ff",
        "value": "0x0",
        "input": "0x2229d0b40000000000000000000000003d0ad0014933b87332be00e832d16d219c65346c000000000000000000000000ea3b5b015a5289be6ffa7196af5386a86e50a8c2000000000000000000000000000000000000000000000000000000000080000000000000000000000000000000000000000000000000000000000000000000010000000000000000000000001510926ba6986cb3c93bfff25839c0ef740820c00000000000000000000000000000000000000000000000000000000000000001ffffffffffffffffffffffffffffffffffffffffffffffff7538dcfb7618000000000000000000000000000000000000000000000000000000000001000276a40000000000000000000000000000000000000000000000000000000000000000000000000000000000000000000000000000000000000000000000000000000000000000000000000000000000000000000000000000000000000000000001600000000000000000000000000000000000000000000000000000000000000000",
        "nonce": "0x16",
        "chainId": "0x515"
      },
      "additionalContracts": [],
      "isFixedGasLimit": false
    }
  ],
  "receipts": [
    {
      "status": "0x1",
      "cumulativeGasUsed": "0x153365",
      "logs": [],
      "logsBloom": "0x00000000000000000000000000000000000000000000000000000000000000000000000000000000000000000000000000000000000000000000000000000000000000000000000000000000000000000000000000000000000000000000000000000000000000000000000000000000000000000000000000000000000000000000000000000000000000000000000000000000000000000000000000000000000000000000000000000000000000000000000000000000000000000000000000000000000000000000000000000000000000000000000000000000000000000000000000000000000000000000000000000000000000000000000000000000",
      "type": "0x2",
      "transactionHash": "0x063694cd27a82318b4c50f0fa710e533aaba40719a57df4d7fbd2ddad660ff13",
      "transactionIndex": "0x8",
      "blockHash": "0x9bccefbecafce879eb59b35caa0671667d6dfe7badc6c24181482d733c08fc78",
      "blockNumber": "0x2b89989",
      "gasUsed": "0xb1740",
      "effectiveGasPrice": "0x7a121",
      "blobGasUsed": "0xebd70",
      "from": "0xbaacdcffa93b984c914014f83ee28b68df88dc87",
      "to": null,
      "contractAddress": "0x3d0ad0014933b87332be00e832d16d219c65346c",
      "daFootprintGasScalar": "0x190",
      "l1BaseFeeScalar": "0x7d0",
      "l1BlobBaseFee": "0x1",
      "l1BlobBaseFeeScalar": "0xdbba0",
      "l1Fee": "0xb35",
      "l1GasPrice": "0x9",
      "l1GasUsed": "0x96f0"
    },
    {
      "status": "0x1",
      "cumulativeGasUsed": "0xd9120",
      "logs": [],
      "logsBloom": "0x00000000000000000000000000000000000000000000000000000000000000000000000000000000000000000000000000000000000000000000000000000000000000000000000000000000000000000000000000000000000000000000000000000000000000000000000000000000000000000000000000000000000000000000000000000000000000000000000000000000000000000000000000000000000000000000000000000000000000000000000000000000000000000000000000000000000000000000000000000000000000000000000000000000000000000000000000000000000000000000000000000000000000000000000000000000",
      "type": "0x2",
      "transactionHash": "0xb69507632516000a95b260fc1d3154b54fc270a6d8d5c5e7ee964c28ec69dbc1",
      "transactionIndex": "0x3",
      "blockHash": "0xfde313544ea7cee28f7df070cd8855c9299a8d400c58397a07decc73a1f3bf9d",
      "blockNumber": "0x2b8998a",
      "gasUsed": "0xb1728",
      "effectiveGasPrice": "0x7a121",
      "blobGasUsed": "0xeba50",
      "from": "0xbaacdcffa93b984c914014f83ee28b68df88dc87",
      "to": null,
      "contractAddress": "0xea3b5b015a5289be6ffa7196af5386a86e50a8c2",
      "daFootprintGasScalar": "0x190",
      "l1BaseFeeScalar": "0x7d0",
      "l1BlobBaseFee": "0x1",
      "l1BlobBaseFeeScalar": "0xdbba0",
      "l1Fee": "0xb33",
      "l1GasPrice": "0x9",
      "l1GasUsed": "0x96d6"
    },
    {
      "status": "0x1",
      "cumulativeGasUsed": "0xe9bac",
      "logs": [
        {
          "address": "0x3d0ad0014933b87332be00e832d16d219c65346c",
          "topics": [
            "0xddf252ad1be2c89b69c2b068fc378daa952ba7f163c4a11628f55a4df523b3ef",
            "0x0000000000000000000000000000000000000000000000000000000000000000",
            "0x000000000000000000000000baacdcffa93b984c914014f83ee28b68df88dc87"
          ],
          "data": "0x00000000000000000000000000000000000000000000d3c21bcecceda1000000",
          "blockHash": "0xfde313544ea7cee28f7df070cd8855c9299a8d400c58397a07decc73a1f3bf9d",
          "blockNumber": "0x2b8998a",
          "blockTimestamp": "0x69a646d6",
          "transactionHash": "0xb63685fa80a49d235e601e98bafbee5a8c99ee86b5f2a26680ca6f3df29c5528",
          "transactionIndex": "0x4",
          "logIndex": "0x1",
          "removed": false
        }
      ],
      "logsBloom": "0x00000000000000000000000000000000000000000000000000000000000000000000000000000000000000000000000000000000004000000000000000000000000000000000000000000008000000000000040000000000000000000000000000000000020000000000000020000800000000000000000000000010000000000000000000000000000001000000000000000000000000000000000000000000000000000000000000000000000000000000000000000000000000080000000000000002000000000000000000000000000000000000000000000000000020000000000000000000000000000000000000000000000000000000000400000000",
      "type": "0x2",
      "transactionHash": "0xb63685fa80a49d235e601e98bafbee5a8c99ee86b5f2a26680ca6f3df29c5528",
      "transactionIndex": "0x4",
      "blockHash": "0xfde313544ea7cee28f7df070cd8855c9299a8d400c58397a07decc73a1f3bf9d",
      "blockNumber": "0x2b8998a",
      "gasUsed": "0x10a8c",
      "effectiveGasPrice": "0x7a121",
      "blobGasUsed": "0x9c40",
      "from": "0xbaacdcffa93b984c914014f83ee28b68df88dc87",
      "to": "0x3d0ad0014933b87332be00e832d16d219c65346c",
      "contractAddress": null,
      "daFootprintGasScalar": "0x190",
      "l1BaseFeeScalar": "0x7d0",
      "l1BlobBaseFee": "0x1",
      "l1BlobBaseFeeScalar": "0xdbba0",
      "l1Fee": "0x76",
      "l1GasPrice": "0x9",
      "l1GasUsed": "0x640"
    },
    {
      "status": "0x1",
      "cumulativeGasUsed": "0xfa638",
      "logs": [
        {
          "address": "0xea3b5b015a5289be6ffa7196af5386a86e50a8c2",
          "topics": [
            "0xddf252ad1be2c89b69c2b068fc378daa952ba7f163c4a11628f55a4df523b3ef",
            "0x0000000000000000000000000000000000000000000000000000000000000000",
            "0x000000000000000000000000baacdcffa93b984c914014f83ee28b68df88dc87"
          ],
          "data": "0x00000000000000000000000000000000000000000000d3c21bcecceda1000000",
          "blockHash": "0xfde313544ea7cee28f7df070cd8855c9299a8d400c58397a07decc73a1f3bf9d",
          "blockNumber": "0x2b8998a",
          "blockTimestamp": "0x69a646d6",
          "transactionHash": "0x1e771a0de1d2c6d9534beca40467f24c9f3f8f424ad3f07539c6cc0ac01df6c5",
          "transactionIndex": "0x5",
          "logIndex": "0x2",
          "removed": false
        }
      ],
      "logsBloom": "0x00000080000000000000004000000000000000000000000000000000000000000000000000000000000000000000000000000000004000000000000000000000000000000000000000000008000000000000040000000000000000000000000000000000020000000000000020000800000000000010000000000010000000000000000000000000000000000000000000000000000000000000000000000000000000000000000000000000000000000000000000000000000000000000000000000002000000000000000000000000000000000000000000000000000020000000000000000000000000000000000000000000000000000000000000000000",
      "type": "0x2",
      "transactionHash": "0x1e771a0de1d2c6d9534beca40467f24c9f3f8f424ad3f07539c6cc0ac01df6c5",
      "transactionIndex": "0x5",
      "blockHash": "0xfde313544ea7cee28f7df070cd8855c9299a8d400c58397a07decc73a1f3bf9d",
      "blockNumber": "0x2b8998a",
      "gasUsed": "0x10a8c",
      "effectiveGasPrice": "0x7a121",
      "blobGasUsed": "0x9c40",
      "from": "0xbaacdcffa93b984c914014f83ee28b68df88dc87",
      "to": "0xea3b5b015a5289be6ffa7196af5386a86e50a8c2",
      "contractAddress": null,
      "daFootprintGasScalar": "0x190",
      "l1BaseFeeScalar": "0x7d0",
      "l1BlobBaseFee": "0x1",
      "l1BlobBaseFeeScalar": "0xdbba0",
      "l1Fee": "0x76",
      "l1GasPrice": "0x9",
      "l1GasUsed": "0x640"
    },
    {
      "status": "0x1",
      "cumulativeGasUsed": "0x2798c4",
      "logs": [],
      "logsBloom": "0x00000000000000000000000000000000000000000000000000000000000000000000000000000000000000000000000000000000000000000000000000000000000000000000000000000000000000000000000000000000000000000000000000000000000000000000000000000000000000000000000000000000000000000000000000000000000000000000000000000000000000000000000000000000000000000000000000000000000000000000000000000000000000000000000000000000000000000000000000000000000000000000000000000000000000000000000000000000000000000000000000000000000000000000000000000000",
      "type": "0x2",
      "transactionHash": "0x8171e1cd7101f7fdb3002fadcbe5172c427a7d1bfe02774986255cef73bb1792",
      "transactionIndex": "0x6",
      "blockHash": "0xfde313544ea7cee28f7df070cd8855c9299a8d400c58397a07decc73a1f3bf9d",
      "blockNumber": "0x2b8998a",
      "gasUsed": "0x17f28c",
      "effectiveGasPrice": "0x7a121",
      "blobGasUsed": "0x195f50",
      "from": "0xbaacdcffa93b984c914014f83ee28b68df88dc87",
      "to": "0x4e59b44847b379578588920ca78fbf26c0b4956c",
      "contractAddress": null,
      "daFootprintGasScalar": "0x190",
      "l1BaseFeeScalar": "0x7d0",
      "l1BlobBaseFee": "0x1",
      "l1BlobBaseFeeScalar": "0xdbba0",
      "l1Fee": "0x134b",
      "l1GasPrice": "0x9",
      "l1GasUsed": "0x103d7"
    },
    {
      "status": "0x1",
      "cumulativeGasUsed": "0x29ee92",
      "logs": [
        {
          "address": "0x00b036b58a818b1bc34d502d3fe730db729e62ac",
          "topics": [
            "0xdd466e674ea557f56295e2d0218a125ea4b4f0f6f3307b95f85e6110838d6438",
            "0xc1c77777b67f1a29bdf167866f482589a1585f3fc6cce965701ab491461ce7de",
            "0x0000000000000000000000003d0ad0014933b87332be00e832d16d219c65346c",
            "0x000000000000000000000000ea3b5b015a5289be6ffa7196af5386a86e50a8c2"
          ],
          "data": "0x000000000000000000000000000000000000000000000000000000000080000000000000000000000000000000000000000000000000000000000000000000010000000000000000000000001510926ba6986cb3c93bfff25839c0ef740820c000000000000000000000000000000000000000010000000000000000000000000000000000000000000000000000000000000000000000000000000000000000",
          "blockHash": "0xfde313544ea7cee28f7df070cd8855c9299a8d400c58397a07decc73a1f3bf9d",
          "blockNumber": "0x2b8998a",
          "blockTimestamp": "0x69a646d6",
          "transactionHash": "0x701c8a33242abb50cdca00900848c222602de5fc47834a236a1ca8d1ce684ffc",
          "transactionIndex": "0x7",
          "logIndex": "0x3",
          "removed": false
        }
      ],
      "logsBloom": "0x00000000000000000000000000002000000000000000000000000000000000000000000000000000000000000000000000000000000000000000000000000000000000000000000000000000000000000000000000000080000000000000004000000000000000000000000000000000000000000000000000000000000000000000000000002008000000000008000000000801000000000000000800200000020000000000000000000000000000000000000000000000000000000000000000000000000000000000000000000000002000000000000000000000000000000000000000000000100000000000000000000000000002000000000000000010",
      "type": "0x2",
      "transactionHash": "0x701c8a33242abb50cdca00900848c222602de5fc47834a236a1ca8d1ce684ffc",
      "transactionIndex": "0x7",
      "blockHash": "0xfde313544ea7cee28f7df070cd8855c9299a8d400c58397a07decc73a1f3bf9d",
      "blockNumber": "0x2b8998a",
      "gasUsed": "0x255ce",
      "effectiveGasPrice": "0x7a121",
      "blobGasUsed": "0xd610",
      "from": "0xbaacdcffa93b984c914014f83ee28b68df88dc87",
      "to": "0x00b036b58a818b1bc34d502d3fe730db729e62ac",
      "contractAddress": null,
      "daFootprintGasScalar": "0x190",
      "l1BaseFeeScalar": "0x7d0",
      "l1BlobBaseFee": "0x1",
      "l1BlobBaseFeeScalar": "0xdbba0",
      "l1Fee": "0xa3",
      "l1GasPrice": "0x9",
      "l1GasUsed": "0x894"
    },
    {
      "status": "0x1",
      "cumulativeGasUsed": "0x2aa429",
      "logs": [
        {
          "address": "0x3d0ad0014933b87332be00e832d16d219c65346c",
          "topics": [
            "0x8c5be1e5ebec7d5bd14f71427d1e84f3dd0314c0f7b2291e5b200ac8c7c3b925",
            "0x000000000000000000000000baacdcffa93b984c914014f83ee28b68df88dc87",
            "0x0000000000000000000000005fa728c0a5cfd51bee4b060773f50554c0c8a7ab"
          ],
          "data": "0xffffffffffffffffffffffffffffffffffffffffffffffffffffffffffffffff",
          "blockHash": "0xfde313544ea7cee28f7df070cd8855c9299a8d400c58397a07decc73a1f3bf9d",
          "blockNumber": "0x2b8998a",
          "blockTimestamp": "0x69a646d6",
          "transactionHash": "0x81204471c389e5f09c81468d4987944c37a347a0c194753d7c0d8d69ad6306eb",
          "transactionIndex": "0x8",
          "logIndex": "0x4",
          "removed": false
        }
      ],
      "logsBloom": "0x00000000000000000000000000000000000000000000000000000000000000000000000000000000000000000000000000000000004000000000000000200000000000000000000000000000000000000000040000000000000000000000000000000000000000000000000020000000000000000000000000000000000000000000000400000000000001000000000000000000000000000000000000000000020000000000000000000000000000000000000000000000000000080000000000000000000000000000000000000000000000000000000000000000000000000010000000000000000000001000000000080000000000000000000400000000",
      "type": "0x2",
      "transactionHash": "0x81204471c389e5f09c81468d4987944c37a347a0c194753d7c0d8d69ad6306eb",
      "transactionIndex": "0x8",
      "blockHash": "0xfde313544ea7cee28f7df070cd8855c9299a8d400c58397a07decc73a1f3bf9d",
      "blockNumber": "0x2b8998a",
      "gasUsed": "0xb597",
      "effectiveGasPrice": "0x7a121",
      "blobGasUsed": "0x9c40",
      "from": "0xbaacdcffa93b984c914014f83ee28b68df88dc87",
      "to": "0x3d0ad0014933b87332be00e832d16d219c65346c",
      "contractAddress": null,
      "daFootprintGasScalar": "0x190",
      "l1BaseFeeScalar": "0x7d0",
      "l1BlobBaseFee": "0x1",
      "l1BlobBaseFeeScalar": "0xdbba0",
      "l1Fee": "0x76",
      "l1GasPrice": "0x9",
      "l1GasUsed": "0x640"
    },
    {
      "status": "0x1",
      "cumulativeGasUsed": "0x2b59c0",
      "logs": [
        {
          "address": "0xea3b5b015a5289be6ffa7196af5386a86e50a8c2",
          "topics": [
            "0x8c5be1e5ebec7d5bd14f71427d1e84f3dd0314c0f7b2291e5b200ac8c7c3b925",
            "0x000000000000000000000000baacdcffa93b984c914014f83ee28b68df88dc87",
            "0x0000000000000000000000005fa728c0a5cfd51bee4b060773f50554c0c8a7ab"
          ],
          "data": "0xffffffffffffffffffffffffffffffffffffffffffffffffffffffffffffffff",
          "blockHash": "0xfde313544ea7cee28f7df070cd8855c9299a8d400c58397a07decc73a1f3bf9d",
          "blockNumber": "0x2b8998a",
          "blockTimestamp": "0x69a646d6",
          "transactionHash": "0x05db6b2772bd667dc205b8c3c93dd98d6e11821c2241dac7e7201de7b22240c0",
          "transactionIndex": "0x9",
          "logIndex": "0x5",
          "removed": false
        }
      ],
      "logsBloom": "0x00000080000000000000004000000000000000000000000000000000000000000000000000000000000000000000000000000000004000000000000000200000000000000000000000000000000000000000040000000000000000000000000000000000000000000000000020000000000000000010000000000000000000000000000400000000000000000000000000000000000000000000000000000000020000000000000000000000000000000000000000000000000000000000000000000000000000000000000000000000000000000000000000000000000000000010000000000000000000001000000000080000000000000000000000000000",
      "type": "0x2",
      "transactionHash": "0x05db6b2772bd667dc205b8c3c93dd98d6e11821c2241dac7e7201de7b22240c0",
      "transactionIndex": "0x9",
      "blockHash": "0xfde313544ea7cee28f7df070cd8855c9299a8d400c58397a07decc73a1f3bf9d",
      "blockNumber": "0x2b8998a",
      "gasUsed": "0xb597",
      "effectiveGasPrice": "0x7a121",
      "blobGasUsed": "0x9c40",
      "from": "0xbaacdcffa93b984c914014f83ee28b68df88dc87",
      "to": "0xea3b5b015a5289be6ffa7196af5386a86e50a8c2",
      "contractAddress": null,
      "daFootprintGasScalar": "0x190",
      "l1BaseFeeScalar": "0x7d0",
      "l1BlobBaseFee": "0x1",
      "l1BlobBaseFeeScalar": "0xdbba0",
      "l1Fee": "0x76",
      "l1GasPrice": "0x9",
      "l1GasUsed": "0x640"
    },
    {
      "status": "0x1",
      "cumulativeGasUsed": "0x2fd4d7",
      "logs": [
        {
          "address": "0x00b036b58a818b1bc34d502d3fe730db729e62ac",
          "topics": [
            "0xf208f4912782fd25c7f114ca3723a2d5dd6f3bcc3ac8db5af63baa85f711d5ec",
            "0xc1c77777b67f1a29bdf167866f482589a1585f3fc6cce965701ab491461ce7de",
            "0x0000000000000000000000005fa728c0a5cfd51bee4b060773f50554c0c8a7ab"
          ],
          "data": "0xfffffffffffffffffffffffffffffffffffffffffffffffffffffffffffffff6000000000000000000000000000000000000000000000000000000000000000a00000000000000000000000000000000000000000000021e19e0c9bab24000000000000000000000000000000000000000000000000000000000000000000000",
          "blockHash": "0xfde313544ea7cee28f7df070cd8855c9299a8d400c58397a07decc73a1f3bf9d",
          "blockNumber": "0x2b8998a",
          "blockTimestamp": "0x69a646d6",
          "transactionHash": "0x0114486a35f0f3d02e9e1a320b23a54d56d32943b3939a6cc6bef7475040f429",
          "transactionIndex": "0xa",
          "logIndex": "0x6",
          "removed": false
        },
        {
          "address": "0x3d0ad0014933b87332be00e832d16d219c65346c",
          "topics": [
            "0xddf252ad1be2c89b69c2b068fc378daa952ba7f163c4a11628f55a4df523b3ef",
            "0x000000000000000000000000baacdcffa93b984c914014f83ee28b68df88dc87",
            "0x00000000000000000000000000b036b58a818b1bc34d502d3fe730db729e62ac"
          ],
          "data": "0x000000000000000000000000000000000000000000000000455e3d95c73e7fb6",
          "blockHash": "0xfde313544ea7cee28f7df070cd8855c9299a8d400c58397a07decc73a1f3bf9d",
          "blockNumber": "0x2b8998a",
          "blockTimestamp": "0x69a646d6",
          "transactionHash": "0x0114486a35f0f3d02e9e1a320b23a54d56d32943b3939a6cc6bef7475040f429",
          "transactionIndex": "0xa",
          "logIndex": "0x7",
          "removed": false
        },
        {
          "address": "0xea3b5b015a5289be6ffa7196af5386a86e50a8c2",
          "topics": [
            "0xddf252ad1be2c89b69c2b068fc378daa952ba7f163c4a11628f55a4df523b3ef",
            "0x000000000000000000000000baacdcffa93b984c914014f83ee28b68df88dc87",
            "0x00000000000000000000000000b036b58a818b1bc34d502d3fe730db729e62ac"
          ],
          "data": "0x000000000000000000000000000000000000000000000000455e3d95c73e7fb6",
          "blockHash": "0xfde313544ea7cee28f7df070cd8855c9299a8d400c58397a07decc73a1f3bf9d",
          "blockNumber": "0x2b8998a",
          "blockTimestamp": "0x69a646d6",
          "transactionHash": "0x0114486a35f0f3d02e9e1a320b23a54d56d32943b3939a6cc6bef7475040f429",
          "transactionIndex": "0xa",
          "logIndex": "0x8",
          "removed": false
        }
      ],
      "logsBloom": "0x00000080000000000000004000000000000000000000000000000000000000000000000000000000000000000000000000000000005000000000000000000000000000000000000000000008000000000000040000000000000000000000004000000000000000000000000020004000000000000010000000000010000000000000000401000000000001000008000000000000000000000000000800000000000004000000000000000000000000000000000000000020000000080000000000000002000000000000000000000000000000000000000000000000000000000000000000000000100000001000000004080000000002000000000400000010",
      "type": "0x2",
      "transactionHash": "0x0114486a35f0f3d02e9e1a320b23a54d56d32943b3939a6cc6bef7475040f429",
      "transactionIndex": "0xa",
      "blockHash": "0xfde313544ea7cee28f7df070cd8855c9299a8d400c58397a07decc73a1f3bf9d",
      "blockNumber": "0x2b8998a",
      "gasUsed": "0x47b17",
      "effectiveGasPrice": "0x7a121",
      "blobGasUsed": "0xfb90",
      "from": "0xbaacdcffa93b984c914014f83ee28b68df88dc87",
      "to": "0x5fa728c0a5cfd51bee4b060773f50554c0c8a7ab",
      "contractAddress": null,
      "daFootprintGasScalar": "0x190",
      "l1BaseFeeScalar": "0x7d0",
      "l1BlobBaseFee": "0x1",
      "l1BlobBaseFeeScalar": "0xdbba0",
      "l1Fee": "0xbf",
      "l1GasPrice": "0x9",
      "l1GasUsed": "0xa18"
    },
    {
      "status": "0x1",
      "cumulativeGasUsed": "0x308a6e",
      "logs": [
        {
          "address": "0x3d0ad0014933b87332be00e832d16d219c65346c",
          "topics": [
            "0x8c5be1e5ebec7d5bd14f71427d1e84f3dd0314c0f7b2291e5b200ac8c7c3b925",
            "0x000000000000000000000000baacdcffa93b984c914014f83ee28b68df88dc87",
            "0x0000000000000000000000009140a78c1a137c7ff1c151ec8231272af78a99a4"
          ],
          "data": "0xffffffffffffffffffffffffffffffffffffffffffffffffffffffffffffffff",
          "blockHash": "0xfde313544ea7cee28f7df070cd8855c9299a8d400c58397a07decc73a1f3bf9d",
          "blockNumber": "0x2b8998a",
          "blockTimestamp": "0x69a646d6",
          "transactionHash": "0x1ba84a6d33f16c5afce8c8fcd2a674c1d8c3745b0107af5b06a3d5cf50a8d7e2",
          "transactionIndex": "0xb",
          "logIndex": "0x9",
          "removed": false
        }
      ],
      "logsBloom": "0x00000000000000000000000000000000000000000000000000000000080000000000000000000000000000000000000000000000004000000000000000200000000000000000000000000000000000000000040000000000004000000000000000000000000000000000000020000000000000000000000000000000000000000000000000000000000001000000000000000000000000000000000000000000020000000000000000010000000000000000000000000000000000080000000000000000000000000000000000000000000000000000000000000000000000000010000000000000000000000000000000000000000000000000000400000000",
      "type": "0x2",
      "transactionHash": "0x1ba84a6d33f16c5afce8c8fcd2a674c1d8c3745b0107af5b06a3d5cf50a8d7e2",
      "transactionIndex": "0xb",
      "blockHash": "0xfde313544ea7cee28f7df070cd8855c9299a8d400c58397a07decc73a1f3bf9d",
      "blockNumber": "0x2b8998a",
      "gasUsed": "0xb597",
      "effectiveGasPrice": "0x7a121",
      "blobGasUsed": "0x9c40",
      "from": "0xbaacdcffa93b984c914014f83ee28b68df88dc87",
      "to": "0x3d0ad0014933b87332be00e832d16d219c65346c",
      "contractAddress": null,
      "daFootprintGasScalar": "0x190",
      "l1BaseFeeScalar": "0x7d0",
      "l1BlobBaseFee": "0x1",
      "l1BlobBaseFeeScalar": "0xdbba0",
      "l1Fee": "0x76",
      "l1GasPrice": "0x9",
      "l1GasUsed": "0x640"
    },
    {
      "status": "0x1",
      "cumulativeGasUsed": "0x314005",
      "logs": [
        {
          "address": "0xea3b5b015a5289be6ffa7196af5386a86e50a8c2",
          "topics": [
            "0x8c5be1e5ebec7d5bd14f71427d1e84f3dd0314c0f7b2291e5b200ac8c7c3b925",
            "0x000000000000000000000000baacdcffa93b984c914014f83ee28b68df88dc87",
            "0x0000000000000000000000009140a78c1a137c7ff1c151ec8231272af78a99a4"
          ],
          "data": "0xffffffffffffffffffffffffffffffffffffffffffffffffffffffffffffffff",
          "blockHash": "0xfde313544ea7cee28f7df070cd8855c9299a8d400c58397a07decc73a1f3bf9d",
          "blockNumber": "0x2b8998a",
          "blockTimestamp": "0x69a646d6",
          "transactionHash": "0x6af6e96ac2d101a61d70d2b95fa23fcfa5842bce5153745da84deadc393134ee",
          "transactionIndex": "0xc",
          "logIndex": "0xa",
          "removed": false
        }
      ],
      "logsBloom": "0x00000080000000000000004000000000000000000000000000000000080000000000000000000000000000000000000000000000004000000000000000200000000000000000000000000000000000000000040000000000004000000000000000000000000000000000000020000000000000000010000000000000000000000000000000000000000000000000000000000000000000000000000000000000020000000000000000010000000000000000000000000000000000000000000000000000000000000000000000000000000000000000000000000000000000000010000000000000000000000000000000000000000000000000000000000000",
      "type": "0x2",
      "transactionHash": "0x6af6e96ac2d101a61d70d2b95fa23fcfa5842bce5153745da84deadc393134ee",
      "transactionIndex": "0xc",
      "blockHash": "0xfde313544ea7cee28f7df070cd8855c9299a8d400c58397a07decc73a1f3bf9d",
      "blockNumber": "0x2b8998a",
      "gasUsed": "0xb597",
      "effectiveGasPrice": "0x7a121",
      "blobGasUsed": "0x9c40",
      "from": "0xbaacdcffa93b984c914014f83ee28b68df88dc87",
      "to": "0xea3b5b015a5289be6ffa7196af5386a86e50a8c2",
      "contractAddress": null,
      "daFootprintGasScalar": "0x190",
      "l1BaseFeeScalar": "0x7d0",
      "l1BlobBaseFee": "0x1",
      "l1BlobBaseFeeScalar": "0xdbba0",
      "l1Fee": "0x76",
      "l1GasPrice": "0x9",
      "l1GasUsed": "0x640"
    },
    {
      "status": "0x1",
      "cumulativeGasUsed": "0x1234cf9",
      "logs": [
        {
          "address": "0x1510926ba6986cb3c93bfff25839c0ef740820c0",
          "topics": [
            "0xdcc67a70f64a313d3466fe6a6212224e098a69a84b4d94c9479289b39665058e",
            "0xc1c77777b67f1a29bdf167866f482589a1585f3fc6cce965701ab491461ce7de"
          ],
          "data": "0x000000000000000000000000000000000000000000000000000000000000012c0000000000000000000000000000000000000000000000000000000000000000",
          "blockHash": "0x0000000000000000000000000000000000000000000000000000000000000000",
          "blockNumber": "0x2b8998b",
          "blockTimestamp": "0x69a646d7",
          "transactionHash": "0x057661ec12166ecd602eb647c40b134296bbd5f38e4da237085e22a874afdd3c",
          "transactionIndex": "0x5",
          "logIndex": "0x3",
          "removed": false
        },
        {
          "address": "0x00b036b58a818b1bc34d502d3fe730db729e62ac",
          "topics": [
            "0x40e9cecb9f5f1f1c5b9c97dec2917b7ee92e57ba5563708daca94dd84ad7112f",
            "0xc1c77777b67f1a29bdf167866f482589a1585f3fc6cce965701ab491461ce7de",
            "0x0000000000000000000000009140a78c1a137c7ff1c151ec8231272af78a99a4"
          ],
          "data": "0xffffffffffffffffffffffffffffffffffffffffffffffffba938bfb27a891d4000000000000000000000000000000000000000000000000455e3d95c73e7fb500000000000000000000000000000000000000000000000000000001000276a40000000000000000000000000000000000000000000000000000000000000000fffffffffffffffffffffffffffffffffffffffffffffffffffffffffff27618000000000000000000000000000000000000000000000000000000000000012c",
          "blockHash": "0x0000000000000000000000000000000000000000000000000000000000000000",
          "blockNumber": "0x2b8998b",
          "blockTimestamp": "0x69a646d7",
          "transactionHash": "0x057661ec12166ecd602eb647c40b134296bbd5f38e4da237085e22a874afdd3c",
          "transactionIndex": "0x5",
          "logIndex": "0x4",
          "removed": false
        },
        {
          "address": "0x1510926ba6986cb3c93bfff25839c0ef740820c0",
          "topics": [
            "0x60f2418ebf1a642a678cbe1f3307dbcff2d8988f50cbfe468a0d417847624b7e",
            "0xc1c77777b67f1a29bdf167866f482589a1585f3fc6cce965701ab491461ce7de"
          ],
          "data": "0x00000000000000000000000000000000000000000000000000000000000000000000000000000000000000000000000000000000000000000000000000000004",
          "blockHash": "0x0000000000000000000000000000000000000000000000000000000000000000",
          "blockNumber": "0x2b8998b",
          "blockTimestamp": "0x69a646d7",
          "transactionHash": "0x057661ec12166ecd602eb647c40b134296bbd5f38e4da237085e22a874afdd3c",
          "transactionIndex": "0x5",
          "logIndex": "0x5",
          "removed": false
        },
        {
          "address": "0x3d0ad0014933b87332be00e832d16d219c65346c",
          "topics": [
            "0xddf252ad1be2c89b69c2b068fc378daa952ba7f163c4a11628f55a4df523b3ef",
            "0x000000000000000000000000baacdcffa93b984c914014f83ee28b68df88dc87",
            "0x00000000000000000000000000b036b58a818b1bc34d502d3fe730db729e62ac"
          ],
          "data": "0x000000000000000000000000000000000000000000000000456c7404d8576e2c",
          "blockHash": "0x0000000000000000000000000000000000000000000000000000000000000000",
          "blockNumber": "0x2b8998b",
          "blockTimestamp": "0x69a646d7",
          "transactionHash": "0x057661ec12166ecd602eb647c40b134296bbd5f38e4da237085e22a874afdd3c",
          "transactionIndex": "0x5",
          "logIndex": "0x6",
          "removed": false
        },
        {
          "address": "0xea3b5b015a5289be6ffa7196af5386a86e50a8c2",
          "topics": [
            "0xddf252ad1be2c89b69c2b068fc378daa952ba7f163c4a11628f55a4df523b3ef",
            "0x00000000000000000000000000b036b58a818b1bc34d502d3fe730db729e62ac",
            "0x000000000000000000000000baacdcffa93b984c914014f83ee28b68df88dc87"
          ],
          "data": "0x000000000000000000000000000000000000000000000000455e3d95c73e7fb5",
          "blockHash": "0x0000000000000000000000000000000000000000000000000000000000000000",
          "blockNumber": "0x2b8998b",
          "blockTimestamp": "0x69a646d7",
          "transactionHash": "0x057661ec12166ecd602eb647c40b134296bbd5f38e4da237085e22a874afdd3c",
          "transactionIndex": "0x5",
          "logIndex": "0x7",
          "removed": false
        }
      ],
      "logsBloom": "0x1000008000000000000000400000000000000000000000000040000408000000000000000000000000000000000000000000000004500000000000000000000000000000000000000001000c000000000008040000000020004000000000004000000000400000000000000120004000000000000010000000000010000000000000000000000000000009000008000000000000000000000000000800000000000000000000000000010000000000000000000000000020000000080000000000000002000000000000000000000000000000000000000000000000000000000000000000000000104000000000000000000000000002000000000400000010",
      "type": "0x2",
      "transactionHash": "0x057661ec12166ecd602eb647c40b134296bbd5f38e4da237085e22a874afdd3c",
      "transactionIndex": "0x5",
      "blockHash": "0x0000000000000000000000000000000000000000000000000000000000000000",
      "blockNumber": "0x2b8998b",
      "gasUsed": "0x11df29d",
      "effectiveGasPrice": "0x7a121",
      "blobGasUsed": "0x101d0",
      "from": "0xbaacdcffa93b984c914014f83ee28b68df88dc87",
      "to": "0x9140a78c1a137c7ff1c151ec8231272af78a99a4",
      "contractAddress": null,
      "daFootprintGasScalar": "0x190",
      "l1BaseFeeScalar": "0x7d0",
      "l1BlobBaseFee": "0x1",
      "l1BlobBaseFeeScalar": "0xdbba0",
      "l1Fee": "0xa5",
      "l1GasPrice": "0x9",
      "l1GasUsed": "0xa5b"
    }
  ],
  "libraries": [],
  "pending": [],
  "returns": {},
  "timestamp": 1772504791013,
  "chain": 1301,
  "commit": null
}